:020000040000FA
:1000000068F1FF1F650100006D0100006F01000035
:1000100000000000000000000000000000000000E0
:10002000000000000000000000000000710100005E
:10003000000000000000000073010000ED0300005C
:1000400077010000770100007701000077010000D0
:1000500077010000770100007701000077010000C0
:1000600077010000770100007701000077010000B0
:1000700077010000770100007701000077010000A0
:100080007701000077010000770100007701000090
:100090007701000077010000770100007701000080
:1000A0007701000077010000770100007701000070
:1000B0007701000077010000770100007701000060
:1000C00000F002F800F03EF80CA030C80838241800
:1000D0002D18A246671EAB4654465D46AC4201D180
:1000E00000F030F87E460F3E0FCCB6460126334274
:1000F00000D0FB1AA246AB4633431847280600003F
:1001000048060000103A02D378C878C1FAD85207DE
:1001100001D330C830C101D504680C6070470000BD
:100120000023002400250026103A01D378C1FBD813
:10013000520700D330C100D50B6070471FB51FBDFB
:1001400010B510BD00F0D8F81146FFF7F7FF00F02A
:10015000A1FA00F0F0F803B4FFF7F2FF03BC00F0DF
:10016000F5F800000748804707480047FEE7FEE72C
:10017000FEE7FEE7FEE7FEE704480549034A054BB4
:10018000704700000D060000C100000068F0FF1F6E
:1001900068F1FF1F68F0FF1F002203098B422CD378
:1001A000030A8B4211D300239C464EE003460B43C7
:1001B0003CD4002243088B4231D303098B421CD329
:1001C000030A8B4201D394463FE0C3098B4201D31B
:1001D000CB01C01A524183098B4201D38B01C01A53
:1001E000524143098B4201D34B01C01A52410309CA
:1001F0008B4201D30B01C01A5241C3088B4201D379
:10020000CB00C01A524183088B4201D38B00C01A25
:10021000524143088B4201D34B00C01A5241411A4C
:1002200000D201465241104670475DE0CA0F00D02F
:100230004942031000D34042534000229C46030928
:100240008B422DD3030A8B4212D3FC22890112BAAE
:10025000030A8B420CD3890192118B4208D3890186
:1002600092118B4204D389013AD0921100E089099E
:10027000C3098B4201D3CB01C01A524183098B427F
:1002800001D38B01C01A524143098B4201D34B0168
:10029000C01A524103098B4201D30B01C01A5241CB
:1002A000C3088B4201D3CB00C01A524183088B4252
:1002B00001D38B00C01A5241D9D243088B4201D3DB
:1002C0004B00C01A5241411A00D2014663465241C6
:1002D0005B10104601D34042002B00D549427047C5
:1002E00063465B1000D3404201B50020C046C046C3
:1002F00002BD704770477047754600F023F8AE4660
:10030000050069465346C008C000854618B020B5B0
:10031000FFF732FF60BC00274908B6460026C0C57B
:10032000C0C5C0C5C0C5C0C5C0C5C0C5C0C5403DAD
:1003300049008D4670470446C046C0462046FFF738
:100340000AFF00000048704708F0FF1F014918200D
:10035000ABBEFEE72600020070470000044A1168A9
:1003600000BF034A1268521A8242FAD37047000053
:1003700000F0FF1F0E48806B0321090308430C495E
:10038000886388150B4948630B4948610B484068EE
:100390000B49086009480068094940390860074866
:1003A0000068486105484068054948617047000099
:1003B0000080044040D0044000C004401C070000FE
:1003C00000F10F40002805D08100064A5158064A26
:1003D000516005E08100034A5158034A403A516098
:1003E000704700001C07000000F10F400248006841
:1003F000401C01490860704700F0FF1F000000002A
:10040000FFFFFFFFFFFFFFFFFFFFFFFFFEFFFFFFFD
:10041000002805D08100064A5158064A916005E03F
:100420008100034A5158034A403A916070470000E6
:100430001C07000000F10F4010B5002819DA1A4A15
:1004400003071B0F083B9B089B00D2588307DC0E59
:10045000FF23A3409A438B071B0E8407E40EA3409F
:100460001A43114B0407240F083CA408A4001A5196
:1004700018E00E4A03231B02D21883089B00D258AF
:100480008307DC0EFF23A3409A438B071B0E8407D0
:10049000E40EA3401A43054B032424021B198408CD
:1004A000A4001A5110BD00001CED00E000E100E0C6
:1004B00070B54F480078C0210840002868D14C48EA
:1004C00040794021084000284ED149480078042155
:1004D0000840002815D1474C45480078382108408D
:1004E000C10801208840C5B229462046FFF754FEC6
:1004F00004463F48407830210840002803D0640972
:1005000001E00124E4033A48C078E0210840C10634
:10051000C90E002926D14011030000F0ADF80805EE
:10052000090D1115191D20230520C00144431AE0AF
:1005300005200002444316E00F20C001444312E0AE
:100540000520400244430EE0B720800044430AE007
:10055000B720C000444306E02748444303E027484F
:10056000444300E000BF38E021480079C006C00ED7
:10057000451C29461F48FFF70FFE04461C484079DA
:10058000C006C00E0546183520466843044624E0E0
:1005900017480078C0210840402815D114484078F9
:1005A000C007C00F002802D10124E40315E0104861
:1005B000007A0E2210404208012090400146104867
:1005C000FFF7EAFD044608E009480078C02108402A
:1005D000802801D1074C00E070BD0A484068000F38
:1005E000411C2046FFF7D8FD0749086000BFF3E72C
:1005F0000040064000127A0095080000710B0000D0
:1006000000093D004080044004F0FF1F002017490E
:100610000860012040041549C0394860062014498B
:100620000870084640784021084011494870084643
:10063000C0788006800E202108430D49C8708020B4
:100640000C49087000200A490871487100BF084829
:100650008079102108400028F9D000BF0448807933
:100660000C2108400028F9D17047000000810440A7
:10067000004006400050064030B47446641E2578A1
:10068000641CAB4204D3635D5B00E31830BC1847C5
:100690001D46F8E70024FFF70BFF7D21C9001C4829
:1006A0000068FFF779FD0546681E1A49884200D99F
:1006B0000CE0681E184948610321081FFFF7BCFEC3
:1006C0000020154988610720086100BFFFF752FE2E
:1006D0001DE0601CFFF79CFE2046FFF799FEFA2004
:1006E000FFF73CFE601CFFF76DFEFA20FFF736FEB9
:1006F0002046FFF767FE601CFFF78AFEFA20FFF72F
:100700002DFE601CFFF75EFEFA20FFF727FEE0E7F4
:1007100004F0FF1FFFFFFF0000E000E020000000EA
:10072000000000204407000000F0FF1F0800000048
:10073000040100004C07000008F0FF1F60010000EA
:0C0740002001000000000000000080020A
:04000005000000C136
:00000001FF
