S3151FFFE000684100201DE3FF1F33E3FF1F35E3FF1F9B
S3151FFFE01000000000000000000000000000000000DC
S3151FFFE02000000000000000000000000037E3FF1F94
S3151FFFE030000000000000000039E3FF1F65E1FF1F1E
S3151FFFE0403DE3FF1F3DE3FF1F3DE3FF1F3DE3FF1FB4
S3151FFFE0503DE3FF1F3DE3FF1F3DE3FF1F3DE3FF1FA4
S3151FFFE0603DE3FF1F3DE3FF1F3DE3FF1F3DE3FF1F94
S3151FFFE0703DE3FF1F3DE3FF1F3DE3FF1F3DE3FF1F84
S3151FFFE0803DE3FF1F3DE3FF1F3DE3FF1F3DE3FF1F74
S3151FFFE0903DE3FF1F3DE3FF1F3DE3FF1F3DE3FF1F64
S3151FFFE0A03DE3FF1F3DE3FF1F3DE3FF1F3DE3FF1F54
S3151FFFE0B03DE3FF1F3DE3FF1F3DE3FF1F3DE3FF1F44
S3151FFFE0C000F002F800F03EF80CA030C808382418FC
S3151FFFE0D02D18A246671EAB4654465D46AC4201D17C
S3151FFFE0E000F030F87E460F3E0FCCB6460126334270
S3151FFFE0F000D0FB1AA246AB4633431847180600004B
S3151FFFE10038060000103A02D378C878C1FAD85207EA
S3151FFFE11001D330C830C101D504680C6070470000B9
S3151FFFE1200023002400250026103A01D378C1FBD80F
S3151FFFE130520700D330C100D50B6070471FB51FBDF7
S3151FFFE14010B510BD00F0A2FA1146FFF7F7FF00F05A
S3151FFFE15063F800F0BAFA03B4FFF7F2FF03BC00F04F
S3151FFFE160BFFA000061480068401C6049086070479D
S3151FFFE1705E4A116800BF5D4A1268521A8242FAD37D
S3151FFFE18070475B48806B032109030843584988631F
S3151FFFE190881558494863584948615848006858497F
S3151FFFE1A0086056484068564940390860534800681A
S3151FFFE1B05349486151484068514940394861704742
S3151FFFE1C0002805D181004D4A51584D4A916005E0FF
S3151FFFE1D081004A4A51584A4A403A9160704700287F
S3151FFFE1E005D18100454A5158454A516005E08100D6
S3151FFFE1F0424A5158424A403A5160704702460020F0
S3151FFFE20006E0002100E0491C3E4B9942FBD3401C10
S3151FFFE2103C4B9842F5D37047002500F0D6F87D2179
S3151FFFE220C9003948006800F081F90446601E374966
S3151FFFE230884200D90CE0601E354948610321081F3B
S3151FFFE24000F01CF80020324988610720086100BFD3
S3151FFFE250FFF797FF11E02846FFF7B2FF681CFFF78E
S3151FFFE260AFFFFA20FFF7CAFF2846FFF7B8FF681C64
S3151FFFE270FFF7B5FFFA20FFF7C1FFECE710B5002840
S3151FFFE28019DA244A03071B0F083B9B089B00D2582A
S3151FFFE2908307DC0EFF23A3409A438B071B0E8407BE
S3151FFFE2A0E40EA3401A431B4B0407240F083CA40884
S3151FFFE2B0A4001A5118E0184A03231B02D218830819
S3151FFFE2C09B00D2588307DC0EFF23A3409A438B077D
S3151FFFE2D01B0E8407E40EA3401A430F4B032424028D
S3151FFFE2E01B198408A4001A5110BD0000004000200E
S3151FFFE2F00080044040D0044000C004400CE7FF1FCD
S3151FFFE30000F10F40C409000004400020FFFFFF007B
S3151FFFE31000E000E01CED00E000E100E00B48854651
S3151FFFE32072B60B480B49016062B60B4880470B4814
S3151FFFE3300047FEE7FEE7FEE7FEE7FEE7FEE7000014
S3151FFFE34007480849064A084B7047000068410020E6
S3151FFFE35008ED00E000E0FF1F6DE3FF1FC1E0FF1F99
S3151FFFE3606840002068410020684000200020674960
S3151FFFE3700860012040046549C0394860062064498A
S3151FFFE3800870084640784021084061494870084692
S3151FFFE390C0788006800E202108435D49C870802003
S3151FFFE3A05C49087000205A490871487100BF5848D8
S3151FFFE3B08079102108400028F9D000BF5448807982
S3151FFFE3C00C2108400028F9D1704770B550480078D6
S3151FFFE3D0C0210840002868D14D4840794021084098
S3151FFFE3E000284ED14A48007804210840002815D13D
S3151FFFE3F0494C4748007838210840C108012088400A
S3151FFFE400C5B22946204600F091F804464048407899
S3151FFFE41030210840002803D0640901E00124E403EA
S3151FFFE4203B48C078E0210840C106C90E002926D106
S3151FFFE4304011030000F05BF90805090D1115191DA1
S3151FFFE44020230520C00144431AE005200002444350
S3151FFFE45016E00F20C001444312E00520400244434B
S3151FFFE4600EE0B720800044430AE0B720C0004443B4
S3151FFFE47006E02A48444303E02948444300E000BF1F
S3151FFFE48038E023480079C006C00E451C294622489E
S3151FFFE49000F04CF804461E484079C006C00E0546DC
S3151FFFE4A0183520466843044624E019480078C021E2
S3151FFFE4B00840402815D116484078C007C00F0028CE
S3151FFFE4C002D10124E40315E01148007A0E22104001
S3151FFFE4D04208012090400146124800F027F80446E3
S3151FFFE4E008E00B480078C0210840802801D10A4C5C
S3151FFFE4F000E070BD0548C0384068000F411C20462C
S3151FFFE50000F014F80849086000BFF2E700810440D5
S3151FFFE510004006400050064000127A009508000092
S3151FFFE520710B000000093D00044000200022030973
S3151FFFE5308B422CD3030A8B4211D300239C464EE0FA
S3151FFFE54003460B433CD4002243088B4231D30309B6
S3151FFFE5508B421CD3030A8B4201D394463FE0C30968
S3151FFFE5608B4201D3CB01C01A524183098B4201D380
S3151FFFE5708B01C01A524143098B4201D34B01C01A6B
S3151FFFE580524103098B4201D30B01C01A5241C308E3
S3151FFFE5908B4201D3CB00C01A524183088B4201D352
S3151FFFE5A08B00C01A524143088B4201D34B00C01A3E
S3151FFFE5B05241411A00D201465241104670475DE053
S3151FFFE5C0CA0F00D04942031000D3404253400022D6
S3151FFFE5D09C4603098B422DD3030A8B4212D3FC227F
S3151FFFE5E0890112BA030A8B420CD3890192118B42FE
S3151FFFE5F008D3890192118B4204D389013AD0921114
S3151FFFE60000E08909C3098B4201D3CB01C01A5241CE
S3151FFFE61083098B4201D38B01C01A524143098B4297
S3151FFFE62001D34B01C01A524103098B4201D30B0180
S3151FFFE630C01A5241C3088B4201D3CB00C01A5241A5
S3151FFFE64083088B4201D38B00C01A5241D9D243088C
S3151FFFE6508B4201D34B00C01A5241411A00D20146C9
S3151FFFE660634652415B10104601D34042002B00D533
S3151FFFE6704942704763465B1000D3404201B50020F5
S3151FFFE680C046C04602BD704770477047754600F0CB
S3151FFFE69023F8AE46050069465346C008C0008546A7
S3151FFFE6A018B020B5FFF74CFE60BC00274908B646D9
S3151FFFE6B00026C0C5C0C5C0C5C0C5C0C5C0C5C0C56D
S3151FFFE6C0C0C5403D49008D4670470446C046C046FB
S3151FFFE6D02046FFF740FD0000004870470840002016
S3151FFFE6E001491820ABBEFEE726000200704730B473
S3151FFFE6F07446641E2578641CAB4204D3635D5B00BE
S3151FFFE700E31830BC18471D46F8E70000000000203D
S3151FFFE7102000000034E7FF1F004000200800000014
S3151FFFE72004E1FF1F3CE7FF1F0840002060010000B8
S3111FFFE73020E1FF1F000000000000800218
S7051FFFE0C13B
