S3151FFFE000684100200DE3FF1F23E3FF1F25E3FF1FCB
S3151FFFE01000000000000000000000000000000000DC
S3151FFFE02000000000000000000000000027E3FF1FA4
S3151FFFE030000000000000000029E3FF1F65E1FF1F2E
S3151FFFE0402DE3FF1F2DE3FF1F2DE3FF1F2DE3FF1FF4
S3151FFFE0502DE3FF1F2DE3FF1F2DE3FF1F2DE3FF1FE4
S3151FFFE0602DE3FF1F2DE3FF1F2DE3FF1F2DE3FF1FD4
S3151FFFE0702DE3FF1F2DE3FF1F2DE3FF1F2DE3FF1FC4
S3151FFFE0802DE3FF1F2DE3FF1F2DE3FF1F2DE3FF1FB4
S3151FFFE0902DE3FF1F2DE3FF1F2DE3FF1F2DE3FF1FA4
S3151FFFE0A02DE3FF1F2DE3FF1F2DE3FF1F2DE3FF1F94
S3151FFFE0B02DE3FF1F2DE3FF1F2DE3FF1F2DE3FF1F84
S3151FFFE0C000F002F800F03EF80CA030C808382418FC
S3151FFFE0D02D18A246671EAB4654465D46AC4201D17C
S3151FFFE0E000F030F87E460F3E0FCCB6460126334270
S3151FFFE0F000D0FB1AA246AB4633431847080600005B
S3151FFFE10028060000103A02D378C878C1FAD85207FA
S3151FFFE11001D330C830C101D504680C6070470000B9
S3151FFFE1200023002400250026103A01D378C1FBD80F
S3151FFFE130520700D330C100D50B6070471FB51FBDF7
S3151FFFE14010B510BD00F09AFA1146FFF7F7FF00F062
S3151FFFE15055F800F0B2FA03B4FFF7F2FF03BC00F065
S3151FFFE160B7FA00005E480068401C5D4908607047AB
S3151FFFE1705B4A116800BF5A4A1268521A8242FAD383
S3151FFFE18070475848806B0321090308435549886325
S3151FFFE190881555494863554948615548006855498B
S3151FFFE1A00860534840685349403908605048006823
S3151FFFE1B0504948614E4840684E494039486170474B
S3151FFFE1C0002805D181004A4A51584A4A916005E005
S3151FFFE1D08100474A5158474A403A91607047002885
S3151FFFE1E005D18100424A5158424A516005E08100DC
S3151FFFE1F03F4A51583F4A403A51607047002500F049
S3151FFFE200DCF87D21C9003C48006800F087F9044609
S3151FFFE210601E3A49884200D90CE0601E38494861A2
S3151FFFE2200321081F00F024F80020354988610720C5
S3151FFFE230086100BFFFF7A5FF19E02846FFF7C0FFDC
S3151FFFE240FA20FFF795FF2846FFF7C9FFFA20FFF7CA
S3151FFFE2508FFF681CFFF7B4FFFF20F530FFF788FF1E
S3151FFFE260681CFFF7BCFFFF20F530FFF781FFE4E7D0
S3151FFFE27010B5002819DA234A03071B0F083B9B0813
S3151FFFE2809B00D2588307DC0EFF23A3409A438B07BD
S3151FFFE2901B0E8407E40EA3401A431A4B0407240FD1
S3151FFFE2A0083CA408A4001A5118E0174A03231B02AF
S3151FFFE2B0D21883089B00D2588307DC0EFF23A34087
S3151FFFE2C09A438B071B0E8407E40EA3401A430E4B7C
S3151FFFE2D0032424021B198408A4001A5110BD000031
S3151FFFE2E0004000200080044040D0044000C004408E
S3151FFFE2F0FCE6FF1F00F10F4004400020FFFFFF0059
S3151FFFE30000E000E01CED00E000E100E00B48854661
S3151FFFE31072B60B480B49016062B60B4880470B4824
S3151FFFE3200047FEE7FEE7FEE7FEE7FEE7FEE7000024
S3151FFFE33007480849064A084B7047000068410020F6
S3151FFFE34008ED00E000E0FF1F5DE3FF1FC1E0FF1FB9
S3151FFFE3506840002068410020684000200020674970
S3151FFFE3600860012040046549C0394860062064499A
S3151FFFE37008700846407840210840614948700846A2
S3151FFFE380C0788006800E202108435D49C870802013
S3151FFFE3905C49087000205A490871487100BF5848E8
S3151FFFE3A08079102108400028F9D000BF5448807992
S3151FFFE3B00C2108400028F9D1704770B550480078E6
S3151FFFE3C0C0210840002868D14D48407940210840A8
S3151FFFE3D000284ED14A48007804210840002815D14D
S3151FFFE3E0494C4748007838210840C108012088401A
S3151FFFE3F0C5B22946204600F091F8044640484078AA
S3151FFFE40030210840002803D0640901E00124E403FA
S3151FFFE4103B48C078E0210840C106C90E002926D116
S3151FFFE4204011030000F05BF90805090D1115191DB1
S3151FFFE43020230520C00144431AE005200002444360
S3151FFFE44016E00F20C001444312E00520400244435B
S3151FFFE4500EE0B720800044430AE0B720C0004443C4
S3151FFFE46006E02A48444303E02948444300E000BF2F
S3151FFFE47038E023480079C006C00E451C29462248AE
S3151FFFE48000F04CF804461E484079C006C00E0546EC
S3151FFFE490183520466843044624E019480078C021F2
S3151FFFE4A00840402815D116484078C007C00F0028DE
S3151FFFE4B002D10124E40315E01148007A0E22104011
S3151FFFE4C04208012090400146124800F027F80446F3
S3151FFFE4D008E00B480078C0210840802801D10A4C6C
S3151FFFE4E000E070BD0548C0384068000F411C20463C
S3151FFFE4F000F014F80849086000BFF2E700810440E6
S3151FFFE500004006400050064000127A0095080000A2
S3151FFFE510710B000000093D00044000200022030983
S3151FFFE5208B422CD3030A8B4211D300239C464EE00A
S3151FFFE53003460B433CD4002243088B4231D30309C6
S3151FFFE5408B421CD3030A8B4201D394463FE0C30978
S3151FFFE5508B4201D3CB01C01A524183098B4201D390
S3151FFFE5608B01C01A524143098B4201D34B01C01A7B
S3151FFFE570524103098B4201D30B01C01A5241C308F3
S3151FFFE5808B4201D3CB00C01A524183088B4201D362
S3151FFFE5908B00C01A524143088B4201D34B00C01A4E
S3151FFFE5A05241411A00D201465241104670475DE063
S3151FFFE5B0CA0F00D04942031000D3404253400022E6
S3151FFFE5C09C4603098B422DD3030A8B4212D3FC228F
S3151FFFE5D0890112BA030A8B420CD3890192118B420E
S3151FFFE5E008D3890192118B4204D389013AD0921124
S3151FFFE5F000E08909C3098B4201D3CB01C01A5241DF
S3151FFFE60083098B4201D38B01C01A524143098B42A7
S3151FFFE61001D34B01C01A524103098B4201D30B0190
S3151FFFE620C01A5241C3088B4201D3CB00C01A5241B5
S3151FFFE63083088B4201D38B00C01A5241D9D243089C
S3151FFFE6408B4201D34B00C01A5241411A00D20146D9
S3151FFFE650634652415B10104601D34042002B00D543
S3151FFFE6604942704763465B1000D3404201B5002005
S3151FFFE670C046C04602BD704770477047754600F0DB
S3151FFFE68023F8AE46050069465346C008C0008546B7
S3151FFFE69018B020B5FFF74CFE60BC00274908B646E9
S3151FFFE6A00026C0C5C0C5C0C5C0C5C0C5C0C5C0C57D
S3151FFFE6B0C0C5403D49008D4670470446C046C0460B
S3151FFFE6C02046FFF748FD000000487047084000201E
S3151FFFE6D001491820ABBEFEE726000200704730B483
S3151FFFE6E07446641E2578641CAB4204D3635D5B00CE
S3151FFFE6F0E31830BC18471D46F8E70000000000204E
S3151FFFE7002000000024E7FF1F004000200800000034
S3151FFFE71004E1FF1F2CE7FF1F0840002060010000D8
S3111FFFE72020E1FF1F000000000000800228
S7051FFFE0C13B
