:020000040000FA
:1000000008E1FF1F750300007D0300007F0300006F
:1000100000000000000000000000000000000000E0
:10002000000000000000000000000000810300004C
:1000300000000000000000008303000085030000B2
:100040008703000087030000870300008703000088
:100050008703000087030000870300008703000078
:100060008703000087030000870300008703000068
:100070008703000087030000870300008703000058
:100080008703000087030000870300008703000048
:1000900087030000870300006B0200008703000055
:1000A0008703000087030000870300008703000028
:1000B0008703000087030000870300008703000018
:1000C0000348854600F07AF9004800472301000004
:1000D00008E1FF1F194800780421084317490870F8
:1000E0000846C078602188431449C8700846C07823
:1000F000A02108431149C87008460078C0218843F0
:100100000E49087000BF0D48807910210840002872
:10011000F9D000BF094880790C2108400028F9D1A6
:100120007047FFF7D7FFE120400200F011F800F020
:1001300079F802E002A000F053F9FBE70040064026
:100140000A0D2048656C6C6F20576F726C6400005C
:10015000F8B504462F48009000252F48806B0121F8
:10016000490208432C498863084640680121090474
:1001700088432949486008464068012189060843A8
:100180002549486048152549486088602248406BE9
:1001900009150843204948630F202149887221012D
:1001A000009800F0F5F885B22F12EEB21C480770E7
:1001B000467000201A4988700846C07A0221084318
:1001C0001749C8720846C0780C2108431449C87002
:1001D000F8BD00BF12490979802211400029F9D0E9
:1001E0000F49C871704700BF0D48007920210840B1
:1001F0000028F9D00A48C079704710B503460C466C
:10020000D8B2FFF7E6FFD8B210BD00B50246FFF73F
:10021000EAFF00BD006CDC02008004400090044056
:1002200000A0064010B51548C06B0121C905084360
:100230001249C863002012490860002111488160FA
:1002400011481049086002210E4881600121C160F7
:10025000806808430B49886000F01AF816200121D5
:1002600081400A4A116000BF10BD10B50121054848
:10027000C160002000F064F810BD00000080044060
:10028000007003400071034040420F0000E100E0B5
:100290003348806B0321090308433149886388157B
:1002A00030494863304948613048006830494968FE
:1002B00008432E4908602D48403800682C490968D9
:1002C00008432A49403908600846406928490968B6
:1002D000084326494039486124484069244949680F
:1002E0000843224948617047002808D01F4989689F
:1002F00082001F4B9A5811431C4A916009E01B4928
:100300004039896882001A4B9A581143174A403A7B
:1003100091607047002808D0144949688200144B46
:100320009A581143114A516009E01049403949680F
:1003300082000F4B9A5811430C4A403A5160704763
:10034000002805D081000A4A5158084AD16005E0CA
:100350008100074A5158054A403AD1607047000071
:100360000080044040D0044000C0044000F10F4031
:10037000F80300000448804704480047FEE7FEE712
:10038000FEE7FEE7FEE7FEE711040000C100000003
:1003900030B50B46014600202022012409E00D461D
:1003A000D5409D4205D31D469540491B25469540A5
:1003B00040191546521E002DF1DC30BD064C0125BA
:1003C000064E05E0E36807CC2B430C3C98471034FD
:1003D000B442F7D3FFF778FE280600004806000075
:1003E00010B5024A024900F00FF910BDFB010000F0
:1003F00004E0FF1F70470000200000000000002004
:10040000FFFFFFFFFFFFFFFFFFFFFFFFFEFFFFFFFD
:10041000002067490860012040046549C0394860F0
:100420000620644908700846407840210840614928
:1004300048700846C0788006800E202108435D4938
:10044000C87080205C49087000205A4908714871C2
:1004500000BF58488079102108400028F9D000BF1B
:10046000544880790C2108400028F9D1704770B5B4
:1004700050480078C0210840002868D14D48407994
:100480004021084000284ED14A4800780421084005
:10049000002815D1494C4748007838210840C10848
:1004A00001208840C5B229462046FFF771FF044667
:1004B0004048407830210840002803D0640901E01A
:1004C0000124E4033B48C078E0210840C106C90E7E
:1004D000002926D14011030000F07AF80805090D23
:1004E0001115191D20230520C00144431AE00520E1
:1004F0000002444316E00F20C001444312E00520EF
:10050000400244430EE0B720800044430AE0B72095
:10051000C000444306E02A48444303E029484443DA
:1005200000E000BF38E023480079C006C00E451C3B
:1005300029462248FFF72CFF04461E484079C00692
:10054000C00E0546183520466843044624E0194885
:100550000078C0210840402815D116484078C007CF
:10056000C00F002802D10124E40315E01148007AED
:100570000E22104042080120904001461248FFF729
:1005800007FF044608E00B480078C0210840802897
:1005900001D10A4C00E070BD0548C0384068000F2A
:1005A000411C2046FFF7F4FE0849086000BFF2E74F
:1005B00000810440004006400050064000127A00CE
:1005C00095080000710B000000093D0000E0FF1FCE
:1005D00030B47446641E2578641CAB4204D3635D5A
:1005E0005B00E31830BC18471D46F8E702E008C876
:1005F000121F08C1002AFAD17047002001E001C192
:10060000121F002AFBD17047F8B516460F46044664
:10061000002503E03946B047641C6D1C2078002893
:10062000F8D12846F8BD00004806000000E0FF1F92
:1006300008000000EC0500005006000008E0FF1F65
:1006400000010000FA050000000080020000000028
:04000005000000C136
:00000001FF
