S3151FFFE0006841002065E1FF1F7BE1FF1F7DE1FF1FC9
S3151FFFE01000000000000000000000000000000000DC
S3151FFFE0200000000000000000000000007FE1FF1F4E
S3151FFFE030000000000000000081E1FF1F83E1FF1FBA
S3151FFFE04085E1FF1F85E1FF1F85E1FF1F85E1FF1F9C
S3151FFFE05085E1FF1F85E1FF1F85E1FF1F85E1FF1F8C
S3151FFFE06085E1FF1F85E1FF1F85E1FF1F85E1FF1F7C
S3151FFFE07085E1FF1F85E1FF1F85E1FF1F85E1FF1F6C
S3151FFFE08085E1FF1F85E1FF1F85E1FF1F85E1FF1F5C
S3151FFFE09085E1FF1F85E1FF1F81E3FF1F85E1FF1F4E
S3151FFFE0A085E1FF1F85E1FF1F85E1FF1F85E1FF1F3C
S3151FFFE0B085E1FF1F85E1FF1F85E1FF1F85E1FF1F2C
S3151FFFE0C000F002F800F03EF80CA030C808382418FC
S3151FFFE0D02D18A246671EAB4654465D46AC4201D17C
S3151FFFE0E000F030F87E460F3E0FCCB6460126334270
S3151FFFE0F000D0FB1AA246AB4633431847B4030000B2
S3151FFFE100D4030000103A02D378C878C1FAD8520751
S3151FFFE11001D330C830C101D504680C6070470000B9
S3151FFFE1200023002400250026103A01D378C1FBD80F
S3151FFFE130520700D330C100D50B6070471FB51FBDF7
S3151FFFE14010B510BD00F039F81146FFF7F7FF00F0C5
S3151FFFE15097F900F051F803B4FFF7F2FF03BC00F085
S3151FFFE16055F800000B48854672B60B480B490160F0
S3151FFFE17062B60B4880470B480047FEE7FEE7FEE700
S3151FFFE180FEE7FEE7FEE7000007480849064A084B79
S3151FFFE190704700006841002008ED00E000E0FF1F08
S3151FFFE1A015E4FF1FC1E0FF1F6840002068410020E4
S3151FFFE1B068400020704770477047754600F022F889
S3151FFFE1C0AE46050069465346C008C000854618B0CF
S3151FFFE1D020B5FFF7D9FF60BC00274908B6460026C2
S3151FFFE1E0C0C5C0C5C0C5C0C5C0C5C0C5C0C5C0C5E3
S3151FFFE1F0403D49008D4670470446C046C0462046EF
S3151FFFE200FFF7A9FF00487047044000200149182067
S3151FFFE210ABBEFEE726000200704700002448407988
S3151FFFE22020218843224948710846407834210843F4
S3151FFFE2301F4948700846C078602188431C49C8702B
S3151FFFE2400846C078802188431949C8700846C07898
S3151FFFE250202108431649C870084640794021884344
S3151FFFE2601349487108460078C02188431049087032
S3151FFFE270084600789A2108430D49087000BF0C48CD
S3151FFFE2808079022108400028F9D000BF084880790D
S3151FFFE290202108400028F9D100BF054880790C21AD
S3151FFFE2A008400828F9D1002002494860704700003E
S3151FFFE2B000400640408004401548806B0321090338
S3151FFFE2C008431349886388151249486312494861F1
S3151FFFE2D012480068124949680843104908600F48E9
S3151FFFE2E0403800680E49096808430C4940390860E1
S3151FFFE2F0084640690A490968084308494039486181
S3151FFFE30006484069064949680843044948617047FA
S3151FFFE3100080044040D0044000C0044000F10F407D
S3151FFFE320A8E4FF1F002808D0094989688200094B06
S3151FFFE3309A581143064A916009E005494039896891
S3151FFFE3408200044B9A581143014A403A9160704725
S3151FFFE35000F10F40A8E4FF1F002805D08100064AE1
S3151FFFE3605158064AD16005E08100034A5158034AB6
S3151FFFE370403AD16070470000A8E4FF1F00F10F402D
S3151FFFE38010B50848C06901280BD107480068401C13
S3151FFFE390FFF7E2FF04480068FFF7DEFF0121014890
S3151FFFE3A0C16110BD00710340004000201448C06BBF
S3151FFFE3B00121C90508431249C86300201149086096
S3151FFFE3C000211148016102218161816904200143F6
S3151FFFE3D00D4881618169012001430B4881610B480B
S3151FFFE3E00949086008468068012108430649886075
S3151FFFE3F0162001218140064A116000BF70470000A9
S3151FFFE40000800440007003400071034000127A0031
S3151FFFE41000E100E00020174908600120400415496C
S3151FFFE420C0394860062014490870084640784021C5
S3151FFFE4300840114948700846C0788006800E202183
S3151FFFE44008430D49C87080200C49087000200A49EF
S3151FFFE4500871487100BF08488079102108400028BD
S3151FFFE460F9D000BF044880790C2108400028F9D154
S3151FFFE47070470000008104400040064000500640E0
S3151FFFE480FFF71AFFFFF792FFFFF7C8FE0548006861
S3151FFFE490FFF748FF03480068401CFFF743FF00BF15
S3151FFFE4A0FEE70000004000202000000000000020C3
S3151FFFE4B0D0E4FF1F004000200400000004E1FF1FFF
S3151FFFE4C0D4E4FF1F044000206401000020E1FF1F6A
S3091FFFE4D00000000024
S7051FFFE0C13B
